{
  "contractName": "Storage",
  "abi": [
    {
      "anonymous": false,
      "inputs": [
        {
          "indexed": false,
          "internalType": "uint256",
          "name": "fileId",
          "type": "uint256"
        },
        {
          "indexed": false,
          "internalType": "string",
          "name": "fileHash",
          "type": "string"
        },
        {
          "indexed": false,
          "internalType": "uint256",
          "name": "fileSize",
          "type": "uint256"
        },
        {
          "indexed": false,
          "internalType": "string",
          "name": "fileType",
          "type": "string"
        },
        {
          "indexed": false,
          "internalType": "string",
          "name": "fileName",
          "type": "string"
        },
        {
          "indexed": false,
          "internalType": "string",
          "name": "fileDescription",
          "type": "string"
        },
        {
          "indexed": false,
          "internalType": "uint256",
          "name": "uploadTime",
          "type": "uint256"
        },
        {
          "indexed": false,
          "internalType": "address payable",
          "name": "uploader",
          "type": "address"
        }
      ],
      "name": "FileUploaded",
      "type": "event"
    },
    {
      "anonymous": false,
      "inputs": [
        {
          "indexed": false,
          "internalType": "uint8",
          "name": "version",
          "type": "uint8"
        }
      ],
      "name": "Initialized",
      "type": "event"
    },
    {
      "inputs": [],
      "name": "fileCount",
      "outputs": [
        {
          "internalType": "uint256",
          "name": "",
          "type": "uint256"
        }
      ],
      "stateMutability": "view",
      "type": "function"
    },
    {
      "inputs": [
        {
          "internalType": "uint256",
          "name": "",
          "type": "uint256"
        }
      ],
      "name": "files",
      "outputs": [
        {
          "internalType": "uint256",
          "name": "fileId",
          "type": "uint256"
        },
        {
          "internalType": "string",
          "name": "fileHash",
          "type": "string"
        },
        {
          "internalType": "uint256",
          "name": "fileSize",
          "type": "uint256"
        },
        {
          "internalType": "string",
          "name": "fileType",
          "type": "string"
        },
        {
          "internalType": "string",
          "name": "fileName",
          "type": "string"
        },
        {
          "internalType": "string",
          "name": "fileDescription",
          "type": "string"
        },
        {
          "internalType": "uint256",
          "name": "uploadTime",
          "type": "uint256"
        },
        {
          "internalType": "address payable",
          "name": "uploader",
          "type": "address"
        }
      ],
      "stateMutability": "view",
      "type": "function"
    },
    {
      "inputs": [],
      "name": "name",
      "outputs": [
        {
          "internalType": "string",
          "name": "",
          "type": "string"
        }
      ],
      "stateMutability": "view",
      "type": "function"
    },
    {
      "inputs": [
        {
          "internalType": "address",
          "name": "_value",
          "type": "address"
        }
      ],
      "name": "initialize",
      "outputs": [],
      "stateMutability": "nonpayable",
      "type": "function"
    },
    {
      "inputs": [
        {
          "internalType": "string",
          "name": "_fileHash",
          "type": "string"
        },
        {
          "internalType": "uint256",
          "name": "_fileSize",
          "type": "uint256"
        },
        {
          "internalType": "string",
          "name": "_fileType",
          "type": "string"
        },
        {
          "internalType": "string",
          "name": "_fileName",
          "type": "string"
        },
        {
          "internalType": "string",
          "name": "_fileDescription",
          "type": "string"
        }
      ],
      "name": "uploadFile",
      "outputs": [],
      "stateMutability": "nonpayable",
      "type": "function"
    }
  ],
  "bytecode": "0x60806040526040518060400160405280600781526020017f53746f726167650000000000000000000000000000000000000000000000000081525060019080519060200190620000519291906200006b565b5060006002553480156200006457600080fd5b506200017f565b82805462000079906200014a565b90600052602060002090601f0160209004810192826200009d5760008555620000e9565b82601f10620000b857805160ff1916838001178555620000e9565b82800160010185558215620000e9579182015b82811115620000e8578251825591602001919060010190620000cb565b5b509050620000f89190620000fc565b5090565b5b8082111562000117576000816000905550600101620000fd565b5090565b7f4e487b7100000000000000000000000000000000000000000000000000000000600052602260045260246000fd5b600060028204905060018216806200016357607f821691505b6020821081036200017957620001786200011b565b5b50919050565b610f5b806200018f6000396000f3fe608060405234801561001057600080fd5b50600436106100575760003560e01c806306fdde031461005c578063439535191461007a578063c4d66de814610098578063e82d9d33146100b4578063f4c714b4146100d0575b600080fd5b610064610107565b6040516100719190610926565b60405180910390f35b610082610195565b60405161008f9190610961565b60405180910390f35b6100b260048036038101906100ad91906109ee565b61019b565b005b6100ce60048036038101906100c99190610b7c565b610228565b005b6100ea60048036038101906100e59190610c67565b61044f565b6040516100fe989796959493929190610cb5565b60405180910390f35b6001805461011490610d7e565b80601f016020809104026020016040519081016040528092919081815260200182805461014090610d7e565b801561018d5780601f106101625761010080835404028352916020019161018d565b820191906000526020600020905b81548152906001019060200180831161017057829003601f168201915b505050505081565b60025481565b60006101a760016106d7565b905080156101cb576001600060016101000a81548160ff0219169083151502179055505b80156102245760008060016101000a81548160ff0219169083151502179055507f7f26b83ff96e1f2b6a682f133852f6798a09c465da95921460cefb3847402498600160405161021b9190610e01565b60405180910390a15b5050565b600085511161023657600080fd5b600083511161024457600080fd5b600081511161025257600080fd5b600082511161026057600080fd5b600073ffffffffffffffffffffffffffffffffffffffff163373ffffffffffffffffffffffffffffffffffffffff160361029957600080fd5b600084116102a657600080fd5b600260008154809291906102b990610e4b565b919050555060405180610100016040528060025481526020018681526020018581526020018481526020018381526020018281526020014281526020013373ffffffffffffffffffffffffffffffffffffffff1681525060036000600254815260200190815260200160002060008201518160000155602082015181600101908051906020019061034b9291906107ea565b506040820151816002015560608201518160030190805190602001906103729291906107ea565b50608082015181600401908051906020019061038f9291906107ea565b5060a08201518160050190805190602001906103ac9291906107ea565b5060c0820151816006015560e08201518160070160006101000a81548173ffffffffffffffffffffffffffffffffffffffff021916908373ffffffffffffffffffffffffffffffffffffffff1602179055509050507f6e95bbaa37a5fdec42a312e049dea2fe6160ebe659214d3409b4f91f164c2f5260025486868686864233604051610440989796959493929190610cb5565b60405180910390a15050505050565b600360205280600052604060002060009150905080600001549080600101805461047890610d7e565b80601f01602080910402602001604051908101604052809291908181526020018280546104a490610d7e565b80156104f15780601f106104c6576101008083540402835291602001916104f1565b820191906000526020600020905b8154815290600101906020018083116104d457829003601f168201915b50505050509080600201549080600301805461050c90610d7e565b80601f016020809104026020016040519081016040528092919081815260200182805461053890610d7e565b80156105855780601f1061055a57610100808354040283529160200191610585565b820191906000526020600020905b81548152906001019060200180831161056857829003601f168201915b50505050509080600401805461059a90610d7e565b80601f01602080910402602001604051908101604052809291908181526020018280546105c690610d7e565b80156106135780601f106105e857610100808354040283529160200191610613565b820191906000526020600020905b8154815290600101906020018083116105f657829003601f168201915b50505050509080600501805461062890610d7e565b80601f016020809104026020016040519081016040528092919081815260200182805461065490610d7e565b80156106a15780601f10610676576101008083540402835291602001916106a1565b820191906000526020600020905b81548152906001019060200180831161068457829003601f168201915b5050505050908060060154908060070160009054906101000a900473ffffffffffffffffffffffffffffffffffffffff16905088565b60008060019054906101000a900460ff161561074e5760018260ff161480156107065750610704306107c7565b155b610745576040517f08c379a000000000000000000000000000000000000000000000000000000000815260040161073c90610f05565b60405180910390fd5b600090506107c2565b8160ff1660008054906101000a900460ff1660ff16106107a3576040517f08c379a000000000000000000000000000000000000000000000000000000000815260040161079a90610f05565b60405180910390fd5b816000806101000a81548160ff021916908360ff160217905550600190505b919050565b6000808273ffffffffffffffffffffffffffffffffffffffff163b119050919050565b8280546107f690610d7e565b90600052602060002090601f016020900481019282610818576000855561085f565b82601f1061083157805160ff191683800117855561085f565b8280016001018555821561085f579182015b8281111561085e578251825591602001919060010190610843565b5b50905061086c9190610870565b5090565b5b80821115610889576000816000905550600101610871565b5090565b600081519050919050565b600082825260208201905092915050565b60005b838110156108c75780820151818401526020810190506108ac565b838111156108d6576000848401525b50505050565b6000601f19601f8301169050919050565b60006108f88261088d565b6109028185610898565b93506109128185602086016108a9565b61091b816108dc565b840191505092915050565b6000602082019050818103600083015261094081846108ed565b905092915050565b6000819050919050565b61095b81610948565b82525050565b60006020820190506109766000830184610952565b92915050565b6000604051905090565b600080fd5b600080fd5b600073ffffffffffffffffffffffffffffffffffffffff82169050919050565b60006109bb82610990565b9050919050565b6109cb816109b0565b81146109d657600080fd5b50565b6000813590506109e8816109c2565b92915050565b600060208284031215610a0457610a03610986565b5b6000610a12848285016109d9565b91505092915050565b600080fd5b600080fd5b7f4e487b7100000000000000000000000000000000000000000000000000000000600052604160045260246000fd5b610a5d826108dc565b810181811067ffffffffffffffff82111715610a7c57610a7b610a25565b5b80604052505050565b6000610a8f61097c565b9050610a9b8282610a54565b919050565b600067ffffffffffffffff821115610abb57610aba610a25565b5b610ac4826108dc565b9050602081019050919050565b82818337600083830152505050565b6000610af3610aee84610aa0565b610a85565b905082815260208101848484011115610b0f57610b0e610a20565b5b610b1a848285610ad1565b509392505050565b600082601f830112610b3757610b36610a1b565b5b8135610b47848260208601610ae0565b91505092915050565b610b5981610948565b8114610b6457600080fd5b50565b600081359050610b7681610b50565b92915050565b600080600080600060a08688031215610b9857610b97610986565b5b600086013567ffffffffffffffff811115610bb657610bb561098b565b5b610bc288828901610b22565b9550506020610bd388828901610b67565b945050604086013567ffffffffffffffff811115610bf457610bf361098b565b5b610c0088828901610b22565b935050606086013567ffffffffffffffff811115610c2157610c2061098b565b5b610c2d88828901610b22565b925050608086013567ffffffffffffffff811115610c4e57610c4d61098b565b5b610c5a88828901610b22565b9150509295509295909350565b600060208284031215610c7d57610c7c610986565b5b6000610c8b84828501610b67565b91505092915050565b6000610c9f82610990565b9050919050565b610caf81610c94565b82525050565b600061010082019050610ccb600083018b610952565b8181036020830152610cdd818a6108ed565b9050610cec6040830189610952565b8181036060830152610cfe81886108ed565b90508181036080830152610d1281876108ed565b905081810360a0830152610d2681866108ed565b9050610d3560c0830185610952565b610d4260e0830184610ca6565b9998505050505050505050565b7f4e487b7100000000000000000000000000000000000000000000000000000000600052602260045260246000fd5b60006002820490506001821680610d9657607f821691505b602082108103610da957610da8610d4f565b5b50919050565b6000819050919050565b600060ff82169050919050565b6000819050919050565b6000610deb610de6610de184610daf565b610dc6565b610db9565b9050919050565b610dfb81610dd0565b82525050565b6000602082019050610e166000830184610df2565b92915050565b7f4e487b7100000000000000000000000000000000000000000000000000000000600052601160045260246000fd5b6000610e5682610948565b91507fffffffffffffffffffffffffffffffffffffffffffffffffffffffffffffffff8203610e8857610e87610e1c565b5b600182019050919050565b7f496e697469616c697a61626c653a20636f6e747261637420697320616c72656160008201527f647920696e697469616c697a6564000000000000000000000000000000000000602082015250565b6000610eef602e83610898565b9150610efa82610e93565b604082019050919050565b60006020820190508181036000830152610f1e81610ee2565b905091905056fea2646970667358221220b1c409eb01998b89d9b0e997b355b5c4015251caf7bcedd9adc1664f12f6149764736f6c634300080e0033",
  "immutableReferences": {},
  "source": "// SPDX-License-Identifier: MIT\r\npragma solidity ^0.8.0;\r\n\r\nimport \"@openzeppelin/contracts-upgradeable/proxy/utils/Initializable.sol\";\r\n\r\ncontract Storage is Initializable {\r\n  string public name = 'Storage';\r\n  uint public fileCount = 0;\r\n  mapping(uint => File) public files;\r\n\r\n  struct File {\r\n    uint fileId;\r\n    string fileHash;\r\n    uint fileSize;\r\n    string fileType;\r\n    string fileName;\r\n    string fileDescription;\r\n    uint uploadTime;\r\n    address payable uploader;\r\n  }\r\n\r\n  event FileUploaded(\r\n    uint fileId,\r\n    string fileHash,\r\n    uint fileSize,\r\n    string fileType,\r\n    string fileName, \r\n    string fileDescription,\r\n    uint uploadTime,\r\n    address payable uploader\r\n  );\r\n\r\n  function initialize(address _value) public initializer {\r\n        \r\n  }\r\n\r\n  function uploadFile(string memory _fileHash, uint _fileSize, string memory _fileType, string memory _fileName, string memory _fileDescription) public {\r\n    // Make sure the file hash exists\r\n    require(bytes(_fileHash).length > 0);\r\n    // Make sure file type exists\r\n    require(bytes(_fileType).length > 0);\r\n    // Make sure file description exists\r\n    require(bytes(_fileDescription).length > 0);\r\n    // Make sure file fileName exists\r\n    require(bytes(_fileName).length > 0);\r\n    // Make sure uploader address exists\r\n    require(msg.sender!=address(0));\r\n    // Make sure file size is more than 0\r\n    require(_fileSize>0);\r\n\r\n    // Increment file id\r\n    fileCount ++;\r\n\r\n    // Add File to the contract\r\n    files[fileCount] = File(fileCount, _fileHash, _fileSize, _fileType, _fileName, _fileDescription, block.timestamp, payable(msg.sender));\r\n    // Trigger an event\r\n    emit FileUploaded(fileCount, _fileHash, _fileSize, _fileType, _fileName, _fileDescription, block.timestamp, payable(msg.sender));\r\n  }\r\n}",
  "sourcePath": "E:\\github.com\\debs\\smart-contracts\\contracts\\Storage.sol",
  "compiler": {
    "name": "solc",
    "version": "0.8.14+commit.80d49f37.Emscripten.clang"
  },
  "schemaVersion": "3.4.7",
  "updatedAt": "2022-06-04T11:39:25.077Z",
  "devdoc": {
    "kind": "dev",
    "methods": {},
    "version": 1
  },
  "userdoc": {
    "kind": "user",
    "methods": {},
    "version": 1
  }
}