{
  "contractName": "StorageFactory",
  "abi": [
    {
      "anonymous": false,
      "inputs": [
        {
          "indexed": false,
          "internalType": "address",
          "name": "vault",
          "type": "address"
        }
      ],
      "name": "StorageCreated",
      "type": "event"
    },
    {
      "inputs": [],
      "name": "deployStorage",
      "outputs": [],
      "stateMutability": "nonpayable",
      "type": "function"
    },
    {
      "inputs": [],
      "name": "computeAddress",
      "outputs": [
        {
          "internalType": "address",
          "name": "",
          "type": "address"
        }
      ],
      "stateMutability": "view",
      "type": "function",
      "constant": true
    },
    {
      "inputs": [
        {
          "internalType": "address",
          "name": "a",
          "type": "address"
        }
      ],
      "name": "calculateAddressHash",
      "outputs": [
        {
          "internalType": "bytes32",
          "name": "hash",
          "type": "bytes32"
        }
      ],
      "stateMutability": "pure",
      "type": "function",
      "constant": true
    }
  ],
  "bytecode": "0x608060405234801561001057600080fd5b5061221e806100206000396000f3fe608060405234801561001057600080fd5b50600436106100415760003560e01c80632ddd52e81461004657806358043d3b146100645780639ed93efc1461006e575b600080fd5b61004e61009e565b60405161005b91906103c3565b60405180910390f35b61006c6100ec565b005b6100886004803603810190610083919061040f565b6101d2565b6040516100959190610455565b60405180910390f35b6000806100aa336101d2565b90506000604051806020016100be90610375565b6020820181038252601f19601f820116604052508051906020012090506100e5828261020d565b9250505090565b60006100f7336101d2565b9050600061012a6000836040518060200161011190610375565b6020820181038252601f19601f82011660405250610222565b90508073ffffffffffffffffffffffffffffffffffffffff1663c4d66de8336040518263ffffffff1660e01b815260040161016591906103c3565b600060405180830381600087803b15801561017f57600080fd5b505af1158015610193573d6000803e3d6000fd5b505050507f6c9d76c1677b0909ce573fabdda9f1bbbc891f981a7efa98415bdcd0ff9f5411816040516101c691906103c3565b60405180910390a15050565b600080826040516020016101e691906104b8565b60405160208183030381529060405290506000818051906020012090508092505050919050565b600061021a838330610331565b905092915050565b60008084471015610268576040517f08c379a000000000000000000000000000000000000000000000000000000000815260040161025f90610530565b60405180910390fd5b60008351036102ac576040517f08c379a00000000000000000000000000000000000000000000000000000000081526004016102a39061059c565b60405180910390fd5b8383516020850187f59050600073ffffffffffffffffffffffffffffffffffffffff168173ffffffffffffffffffffffffffffffffffffffff1603610326576040517f08c379a000000000000000000000000000000000000000000000000000000000815260040161031d90610608565b60405180910390fd5b809150509392505050565b60008060ff60f81b83868660405160200161034f9493929190610696565b6040516020818303038152906040528051906020012090508060001c9150509392505050565b611b04806106e583390190565b600073ffffffffffffffffffffffffffffffffffffffff82169050919050565b60006103ad82610382565b9050919050565b6103bd816103a2565b82525050565b60006020820190506103d860008301846103b4565b92915050565b600080fd5b6103ec816103a2565b81146103f757600080fd5b50565b600081359050610409816103e3565b92915050565b600060208284031215610425576104246103de565b5b6000610433848285016103fa565b91505092915050565b6000819050919050565b61044f8161043c565b82525050565b600060208201905061046a6000830184610446565b92915050565b60008160601b9050919050565b600061048882610470565b9050919050565b600061049a8261047d565b9050919050565b6104b26104ad826103a2565b61048f565b82525050565b60006104c482846104a1565b60148201915081905092915050565b600082825260208201905092915050565b7f437265617465323a20696e73756666696369656e742062616c616e6365000000600082015250565b600061051a601d836104d3565b9150610525826104e4565b602082019050919050565b600060208201905081810360008301526105498161050d565b9050919050565b7f437265617465323a2062797465636f6465206c656e677468206973207a65726f600082015250565b60006105866020836104d3565b915061059182610550565b602082019050919050565b600060208201905081810360008301526105b581610579565b9050919050565b7f437265617465323a204661696c6564206f6e206465706c6f7900000000000000600082015250565b60006105f26019836104d3565b91506105fd826105bc565b602082019050919050565b60006020820190508181036000830152610621816105e5565b9050919050565b60007fff0000000000000000000000000000000000000000000000000000000000000082169050919050565b6000819050919050565b61066f61066a82610628565b610654565b82525050565b6000819050919050565b61069061068b8261043c565b610675565b82525050565b60006106a2828761065e565b6001820191506106b282866104a1565b6014820191506106c2828561067f565b6020820191506106d2828461067f565b6020820191508190509594505050505056fe60806040526040518060400160405280600781526020017f53746f726167650000000000000000000000000000000000000000000000000081525060659080519060200190620000519291906200006b565b5060006066553480156200006457600080fd5b506200017f565b82805462000079906200014a565b90600052602060002090601f0160209004810192826200009d5760008555620000e9565b82601f10620000b857805160ff1916838001178555620000e9565b82800160010185558215620000e9579182015b82811115620000e8578251825591602001919060010190620000cb565b5b509050620000f89190620000fc565b5090565b5b8082111562000117576000816000905550600101620000fd565b5090565b7f4e487b7100000000000000000000000000000000000000000000000000000000600052602260045260246000fd5b600060028204905060018216806200016357607f821691505b6020821081036200017957620001786200011b565b5b50919050565b611975806200018f6000396000f3fe608060405234801561001057600080fd5b50600436106100885760003560e01c8063c4d66de81161005b578063c4d66de8146100f1578063c5b420061461010d578063e82d9d3314610129578063f2fde38b1461014557610088565b806306fdde031461008d5780632da96d73146100ab578063715018a6146100c95780638da5cb5b146100d3575b600080fd5b610095610161565b6040516100a29190610f91565b60405180910390f35b6100b36101ef565b6040516100c09190611176565b60405180910390f35b6100d1610587565b005b6100db61060f565b6040516100e891906111d9565b60405180910390f35b61010b60048036038101906101069190611234565b610639565b005b6101276004803603810190610122919061128d565b6106d7565b005b610143600480360381019061013e91906113ef565b610826565b005b61015f600480360381019061015a9190611234565b610a4d565b005b6065805461016e90611509565b80601f016020809104026020016040519081016040528092919081815260200182805461019a90611509565b80156101e75780601f106101bc576101008083540402835291602001916101e7565b820191906000526020600020905b8154815290600101906020018083116101ca57829003601f168201915b505050505081565b60606101f9610b44565b73ffffffffffffffffffffffffffffffffffffffff1661021761060f565b73ffffffffffffffffffffffffffffffffffffffff161461026d576040517f08c379a000000000000000000000000000000000000000000000000000000000815260040161026490611586565b60405180910390fd5b600060665467ffffffffffffffff81111561028b5761028a6112c4565b5b6040519080825280602002602001820160405280156102c457816020015b6102b1610ddf565b8152602001906001900390816102a95790505b50905060005b60665481101561057f57606760008281526020019081526020016000206040518060c001604052908160008201805461030290611509565b80601f016020809104026020016040519081016040528092919081815260200182805461032e90611509565b801561037b5780601f106103505761010080835404028352916020019161037b565b820191906000526020600020905b81548152906001019060200180831161035e57829003601f168201915b505050505081526020016001820154815260200160028201805461039e90611509565b80601f01602080910402602001604051908101604052809291908181526020018280546103ca90611509565b80156104175780601f106103ec57610100808354040283529160200191610417565b820191906000526020600020905b8154815290600101906020018083116103fa57829003601f168201915b5050505050815260200160038201805461043090611509565b80601f016020809104026020016040519081016040528092919081815260200182805461045c90611509565b80156104a95780601f1061047e576101008083540402835291602001916104a9565b820191906000526020600020905b81548152906001019060200180831161048c57829003601f168201915b505050505081526020016004820180546104c290611509565b80601f01602080910402602001604051908101604052809291908181526020018280546104ee90611509565b801561053b5780601f106105105761010080835404028352916020019161053b565b820191906000526020600020905b81548152906001019060200180831161051e57829003601f168201915b50505050508152602001600582015481525050828281518110610561576105606115a6565b5b6020026020010181905250808061057790611604565b9150506102ca565b508091505090565b61058f610b44565b73ffffffffffffffffffffffffffffffffffffffff166105ad61060f565b73ffffffffffffffffffffffffffffffffffffffff1614610603576040517f08c379a00000000000000000000000000000000000000000000000000000000081526004016105fa90611586565b60405180910390fd5b61060d6000610b4c565b565b6000603360009054906101000a900473ffffffffffffffffffffffffffffffffffffffff16905090565b60006106456001610c12565b90508015610669576001600060016101000a81548160ff0219169083151502179055505b610671610d02565b61067a82610a4d565b80156106d35760008060016101000a81548160ff0219169083151502179055507f7f26b83ff96e1f2b6a682f133852f6798a09c465da95921460cefb384740249860016040516106ca919061169e565b60405180910390a15b5050565b6106df610b44565b73ffffffffffffffffffffffffffffffffffffffff166106fd61060f565b73ffffffffffffffffffffffffffffffffffffffff1614610753576040517f08c379a000000000000000000000000000000000000000000000000000000000815260040161074a90611586565b60405180910390fd5b6000811161076057600080fd5b606654811061076e57600080fd5b60676000828152602001908152602001600020600080820160006107929190610e15565b60018201600090556002820160006107aa9190610e15565b6003820160006107ba9190610e15565b6004820160006107ca9190610e15565b60058201600090555050606660008154809291906107e7906116b9565b91905055507fe99b6e84b086d8a8eea2860f1a00b0ddd4902c26005cc4938467e0530f55b8058160405161081b91906116f1565b60405180910390a150565b61082e610b44565b73ffffffffffffffffffffffffffffffffffffffff1661084c61060f565b73ffffffffffffffffffffffffffffffffffffffff16146108a2576040517f08c379a000000000000000000000000000000000000000000000000000000000815260040161089990611586565b60405180910390fd5b60008551116108b057600080fd5b60008351116108be57600080fd5b60008151116108cc57600080fd5b60008251116108da57600080fd5b600073ffffffffffffffffffffffffffffffffffffffff163373ffffffffffffffffffffffffffffffffffffffff160361091357600080fd5b6000841161092057600080fd5b6040518060c0016040528086815260200185815260200184815260200183815260200182815260200142815250606760006066548152602001908152602001600020600082015181600001908051906020019061097e929190610e55565b506020820151816001015560408201518160020190805190602001906109a5929190610e55565b5060608201518160030190805190602001906109c2929190610e55565b5060808201518160040190805190602001906109df929190610e55565b5060a0820151816005015590505060666000815480929190610a0090611604565b91905055507f75202b2855320ab13f827935c09681f07d8813bd8d0c5baa3f3600927f3b706f858585858542604051610a3e9695949392919061170c565b60405180910390a15050505050565b610a55610b44565b73ffffffffffffffffffffffffffffffffffffffff16610a7361060f565b73ffffffffffffffffffffffffffffffffffffffff1614610ac9576040517f08c379a0000000000000000000000000000000000000000000000000000000008152600401610ac090611586565b60405180910390fd5b600073ffffffffffffffffffffffffffffffffffffffff168173ffffffffffffffffffffffffffffffffffffffff1603610b38576040517f08c379a0000000000000000000000000000000000000000000000000000000008152600401610b2f906117fb565b60405180910390fd5b610b4181610b4c565b50565b600033905090565b6000603360009054906101000a900473ffffffffffffffffffffffffffffffffffffffff16905081603360006101000a81548173ffffffffffffffffffffffffffffffffffffffff021916908373ffffffffffffffffffffffffffffffffffffffff1602179055508173ffffffffffffffffffffffffffffffffffffffff168173ffffffffffffffffffffffffffffffffffffffff167f8be0079c531659141344cd1fd0a4f28419497f9722a3daafe3b4186f6b6457e060405160405180910390a35050565b60008060019054906101000a900460ff1615610c895760018260ff16148015610c415750610c3f30610d5b565b155b610c80576040517f08c379a0000000000000000000000000000000000000000000000000000000008152600401610c779061188d565b60405180910390fd5b60009050610cfd565b8160ff1660008054906101000a900460ff1660ff1610610cde576040517f08c379a0000000000000000000000000000000000000000000000000000000008152600401610cd59061188d565b60405180910390fd5b816000806101000a81548160ff021916908360ff160217905550600190505b919050565b600060019054906101000a900460ff16610d51576040517f08c379a0000000000000000000000000000000000000000000000000000000008152600401610d489061191f565b60405180910390fd5b610d59610d7e565b565b6000808273ffffffffffffffffffffffffffffffffffffffff163b119050919050565b600060019054906101000a900460ff16610dcd576040517f08c379a0000000000000000000000000000000000000000000000000000000008152600401610dc49061191f565b60405180910390fd5b610ddd610dd8610b44565b610b4c565b565b6040518060c001604052806060815260200160008152602001606081526020016060815260200160608152602001600081525090565b508054610e2190611509565b6000825580601f10610e335750610e52565b601f016020900490600052602060002090810190610e519190610edb565b5b50565b828054610e6190611509565b90600052602060002090601f016020900481019282610e835760008555610eca565b82601f10610e9c57805160ff1916838001178555610eca565b82800160010185558215610eca579182015b82811115610ec9578251825591602001919060010190610eae565b5b509050610ed79190610edb565b5090565b5b80821115610ef4576000816000905550600101610edc565b5090565b600081519050919050565b600082825260208201905092915050565b60005b83811015610f32578082015181840152602081019050610f17565b83811115610f41576000848401525b50505050565b6000601f19601f8301169050919050565b6000610f6382610ef8565b610f6d8185610f03565b9350610f7d818560208601610f14565b610f8681610f47565b840191505092915050565b60006020820190508181036000830152610fab8184610f58565b905092915050565b600081519050919050565b600082825260208201905092915050565b6000819050602082019050919050565b600082825260208201905092915050565b6000610ffb82610ef8565b6110058185610fdf565b9350611015818560208601610f14565b61101e81610f47565b840191505092915050565b6000819050919050565b61103c81611029565b82525050565b600060c083016000830151848203600086015261105f8282610ff0565b91505060208301516110746020860182611033565b506040830151848203604086015261108c8282610ff0565b915050606083015184820360608601526110a68282610ff0565b915050608083015184820360808601526110c08282610ff0565b91505060a08301516110d560a0860182611033565b508091505092915050565b60006110ec8383611042565b905092915050565b6000602082019050919050565b600061110c82610fb3565b6111168185610fbe565b93508360208202850161112885610fcf565b8060005b85811015611164578484038952815161114585826110e0565b9450611150836110f4565b925060208a0199505060018101905061112c565b50829750879550505050505092915050565b600060208201905081810360008301526111908184611101565b905092915050565b600073ffffffffffffffffffffffffffffffffffffffff82169050919050565b60006111c382611198565b9050919050565b6111d3816111b8565b82525050565b60006020820190506111ee60008301846111ca565b92915050565b6000604051905090565b600080fd5b600080fd5b611211816111b8565b811461121c57600080fd5b50565b60008135905061122e81611208565b92915050565b60006020828403121561124a576112496111fe565b5b60006112588482850161121f565b91505092915050565b61126a81611029565b811461127557600080fd5b50565b60008135905061128781611261565b92915050565b6000602082840312156112a3576112a26111fe565b5b60006112b184828501611278565b91505092915050565b600080fd5b600080fd5b7f4e487b7100000000000000000000000000000000000000000000000000000000600052604160045260246000fd5b6112fc82610f47565b810181811067ffffffffffffffff8211171561131b5761131a6112c4565b5b80604052505050565b600061132e6111f4565b905061133a82826112f3565b919050565b600067ffffffffffffffff82111561135a576113596112c4565b5b61136382610f47565b9050602081019050919050565b82818337600083830152505050565b600061139261138d8461133f565b611324565b9050828152602081018484840111156113ae576113ad6112bf565b5b6113b9848285611370565b509392505050565b600082601f8301126113d6576113d56112ba565b5b81356113e684826020860161137f565b91505092915050565b600080600080600060a0868803121561140b5761140a6111fe565b5b600086013567ffffffffffffffff81111561142957611428611203565b5b611435888289016113c1565b955050602061144688828901611278565b945050604086013567ffffffffffffffff81111561146757611466611203565b5b611473888289016113c1565b935050606086013567ffffffffffffffff81111561149457611493611203565b5b6114a0888289016113c1565b925050608086013567ffffffffffffffff8111156114c1576114c0611203565b5b6114cd888289016113c1565b9150509295509295909350565b7f4e487b7100000000000000000000000000000000000000000000000000000000600052602260045260246000fd5b6000600282049050600182168061152157607f821691505b602082108103611534576115336114da565b5b50919050565b7f4f776e61626c653a2063616c6c6572206973206e6f7420746865206f776e6572600082015250565b6000611570602083610f03565b915061157b8261153a565b602082019050919050565b6000602082019050818103600083015261159f81611563565b9050919050565b7f4e487b7100000000000000000000000000000000000000000000000000000000600052603260045260246000fd5b7f4e487b7100000000000000000000000000000000000000000000000000000000600052601160045260246000fd5b600061160f82611029565b91507fffffffffffffffffffffffffffffffffffffffffffffffffffffffffffffffff8203611641576116406115d5565b5b600182019050919050565b6000819050919050565b600060ff82169050919050565b6000819050919050565b600061168861168361167e8461164c565b611663565b611656565b9050919050565b6116988161166d565b82525050565b60006020820190506116b3600083018461168f565b92915050565b60006116c482611029565b9150600082036116d7576116d66115d5565b5b600182039050919050565b6116eb81611029565b82525050565b600060208201905061170660008301846116e2565b92915050565b600060c08201905081810360008301526117268189610f58565b905061173560208301886116e2565b81810360408301526117478187610f58565b9050818103606083015261175b8186610f58565b9050818103608083015261176f8185610f58565b905061177e60a08301846116e2565b979650505050505050565b7f4f776e61626c653a206e6577206f776e657220697320746865207a65726f206160008201527f6464726573730000000000000000000000000000000000000000000000000000602082015250565b60006117e5602683610f03565b91506117f082611789565b604082019050919050565b60006020820190508181036000830152611814816117d8565b9050919050565b7f496e697469616c697a61626c653a20636f6e747261637420697320616c72656160008201527f647920696e697469616c697a6564000000000000000000000000000000000000602082015250565b6000611877602e83610f03565b91506118828261181b565b604082019050919050565b600060208201905081810360008301526118a68161186a565b9050919050565b7f496e697469616c697a61626c653a20636f6e7472616374206973206e6f74206960008201527f6e697469616c697a696e67000000000000000000000000000000000000000000602082015250565b6000611909602b83610f03565b9150611914826118ad565b604082019050919050565b60006020820190508181036000830152611938816118fc565b905091905056fea264697066735822122013ea1e35346f420af97e185cebccf3980057879189959874e175bd757150e1a264736f6c634300080e0033a2646970667358221220b23abd32370322ad336d9cb20af42864d7ede4e2901b199efa814935457413b364736f6c634300080e0033",
  "immutableReferences": {},
  "source": "// SPDX-License-Identifier: MIT\r\npragma solidity ^0.8.0;\r\n\r\nimport '@openzeppelin/contracts/utils/Create2.sol';\r\nimport './Storage.sol';\r\n\r\ncontract StorageFactory {\r\n    event StorageCreated(address vault);\r\n\r\n    function deployStorage() public {\r\n        bytes32 salt = calculateAddressHash(msg.sender);\r\n        address storageAddress;\r\n\r\n        storageAddress = Create2.deploy(0, salt, type(Storage).creationCode);\r\n        Storage(storageAddress).initialize(msg.sender);\r\n        \r\n        emit StorageCreated(storageAddress);\r\n    }\r\n\r\n    function computeAddress() public view returns (address) {\r\n        bytes32 salt = calculateAddressHash(msg.sender);\r\n        bytes32 bytecodeHashHash = keccak256(type(Storage).creationCode);\r\n        return Create2.computeAddress(salt, bytecodeHashHash);\r\n    }\r\n\r\n  /**\r\n   * A test method exposed to be called from clients to compare that ABI packing and hashing\r\n   * is same across different programming languages.\r\n   *\r\n   * Does ABI encoding for an address and then calculates KECCAK-256 hash over the bytes.\r\n   *\r\n   */\r\n  function calculateAddressHash(address a) public pure returns (bytes32 hash) {\r\n    // First we ABI encode the address to bytes.\r\n    // This is so called \"tight packing\"\r\n    bytes memory packed = abi.encodePacked(a);\r\n\r\n    // Then we calculate keccak256 over the resulting bytes\r\n    bytes32 hashResult = keccak256(packed);\r\n\r\n    return(hashResult);\r\n  }\r\n\r\n} ",
  "sourcePath": "E:\\github.com\\debs\\smart-contracts\\contracts\\FactoryStorage.sol",
  "compiler": {
    "name": "solc",
    "version": "0.8.14+commit.80d49f37.Emscripten.clang"
  },
  "schemaVersion": "3.4.7",
  "updatedAt": "2022-06-08T19:34:45.037Z",
  "networkType": "ethereum",
  "devdoc": {
    "kind": "dev",
    "methods": {},
    "version": 1
  },
  "userdoc": {
    "kind": "user",
    "methods": {
      "calculateAddressHash(address)": {
        "notice": "A test method exposed to be called from clients to compare that ABI packing and hashing is same across different programming languages. Does ABI encoding for an address and then calculates KECCAK-256 hash over the bytes."
      }
    },
    "version": 1
  }
}